:020000040800F2
:1000000070040020750E0008B90D0008BB0D000833
:10001000BD0D0008BF0D0008C10D00080000000064
:10002000000000000000000000000000A50E000815
:10003000C30D000800000000AD0E0008C50D00084B
:10004000B50E0008B90E0008BD0E0008C10E00086C
:10005000C50E0008C90E0008CD0E0008D10E00081C
:10006000D50E0008D90E0008DD0E0008DF0D0008CF
:10007000D70D0008E90E0008ED0E0008F10E00088B
:10008000F50E0008F90E0008FD0E0008010F00082B
:10009000050F0008090F00080D0F0008110F0008D8
:1000A000150F0008190F00081D0F0008210F000888
:1000B000250F0008290F00082D0F0008310F000838
:1000C000350F0008390F00083D0F0008410F0008E8
:1000D000450F0008D50D00084D0F0008510F00080E
:1000E000550F0008590F00085D0F000830B480223A
:1000F000002845D00023DBB2082B4BDA44781442A9
:1001000007D03224DBB221F81340DBB231F81340C0
:1001100006E01924DBB221F81340DBB231F81340BA
:100120000478144209D03224DBB211EB43052C824F
:10013000DBB211EB4304248A08E01924DBB211EB93
:1001400043052C82DBB211EB4304248A84781442E9
:1001500009D03224DBB211EB43052C84DBB211EB66
:100160004304248C08E01924DBB211EB43052C84F2
:10017000DBB211EB4304248CD2B252085B1CBAE709
:100180000023DBB2182B05DA0024DBB221F8134080
:100190005B1CF6E730BC704710B50024402000F02F
:1001A000B1F9012804D1A8480400402000F0BFF9AB
:1001B000202000F0A7F9012804D1AA48040020203B
:1001C00000F0B5F9A548007800280DD0A4480068D3
:1001D000C11CA34A11602100FFF788FF9F480078E7
:1001E000401E9E4908700FE09F480078002804D008
:1001F0000021964800F06DF906E021000020FFF78D
:1002000075FF01209849087010BD80B54FF400407B
:1002100000F09EF90B20904908708F4800F0D8F943
:1002200001220221914800F062F904208549C8604A
:100230000020844988600020824988628C48814976
:1002400048604FF480607F49C86180207D494861E3
:1002500020207C49086287487A4908604FF4807002
:10026000784988610020774908614FF4005075494A
:10027000486274497D4800F00DF901217B4800F087
:1002800028F9F0206D49088000206C49C8706B493E
:10029000794800F0D9F97949794800F077FA0223D2
:1002A00001220421764800F0D5FA0223022205211A
:1002B000734800F0CFFA022303220621704800F0B1
:1002C000C9FA0223042207216D4800F0C3FA012174
:1002D0006B4800F083FA0121694800F08CFA012193
:1002E000674800F02EFB664800F092FA644800F080
:1002F00094FA0028FAD1624800F09BFA604800F0B6
:100300009DFA0028FAD103205149088042F2283092
:100310004F4988804E495B4800F024FB60204D49DE
:10032000088001204B49488000204A49888048487D
:100330008088022190FBF1F04649C8804549514828
:1003400000F05AFB01214F4800F09DFB08214D4869
:1003500000F0A7FB01214B4800F093FB01BD00001A
:1003600080B50020484908800020484908700221D3
:10037000334800F004FA4FF48061314800F0FFF98F
:100380004FF480612E4800F0FDF902212C4800F066
:10039000F9F901213B4800F066FB3C480078002851
:1003A000FBD000BF01BD80B54FF48061244800F050
:1003B000E6F94FF48061224800F0E4F92C48008807
:1003C0003349314A128821F812002F480088401C16
:1003D0002D490880264840882D492B4A128821F84B
:1003E000120029480088401C27490880204880883E
:1003F0002749254A128821F8120023480088401C0A
:10040000214908801A48C08821491F4A128821F8CA
:1004100012001D480088401C1B4908801A480088AB
:10042000082806DB0120194908700021154800F052
:100430001AFB022000F07BF801BD00002C00002018
:10044000000C014000000020700400201C0002404D
:10045000300000203C0000204C000020EF04002071
:10046000E4040020A0040020EE0400200800024064
:10047000500000204C24014000080140580000209A
:100480000024014000080040EC040020F00400209B
:10049000D004002010B4002203681A006FF30E127B
:1004A0008B680C6A23430C6923434C6923438C6992
:1004B0002343CC6923434C6A23438C6A23431A4366
:1004C0000260CB6843600B6883604B68C36010BCFC
:1004D0007047C9B2002904D0026852F001020260DC
:1004E00004E002684FF6FE731A4002607047D2B211
:1004F000002A03D003680B43036002E003688B43C8
:1005000003607047010000200022CB0003D50E4B92
:100510001B681A0002E00D4B1B681A000A4202D049
:100520000123180001E000231800C0B27047C10089
:1005300002D50449086001E00149086070470000E5
:100540000400024004040240000402400000024093
:1005500000211B4A1268110031F440410143184A3E
:1005600011607047C9B2002905D0164A12680243CB
:10057000144B1A6004E0134A12688243114B1A604C
:100580007047C9B2002905D00F4A126802430E4BCA
:100590001A6004E00C4A126882430B4B1A607047E1
:1005A000C9B2002905D0094A12680243074B1A60F4
:1005B00004E0064A12688243044B1A607047000048
:1005C0000410024014100240181002401C10024097
:1005D00070B4002300210F22C478002C20D0164CC8
:1005E000246814F4E064D4F5E064240A2300D3F111
:1005F00004042100DA4044788C40230084781440BD
:1006000023431B010D4C05782B550124057815F06B
:100610001F05AC400A4D0678761145F8264009E0E2
:100620000124057815F01F05AC40064D06787611BB
:1006300045F8264070BC70470CED00E000E400E097
:1006400000E100E080E100E0F0B500270022002397
:1006500000240025002691F803C01CF00F0C67460B
:1006600091F803C05FEACC6C03D591F802C05CEA54
:10067000070791F800C05FEA0C6C3AD0D0F800C0D0
:1006800065465FF0000C6346082B31D25FF0010C29
:100690001CFA03FC6446B1F800C014EA0C0C624674
:1006A000A24223D15FEA830C64465FF00F0C1CFA70
:1006B00004FC6646B54317FA04FC5CEA050591F8AC
:1006C00003C0BCF1280F06D15FF0010C1CFA03FC3B
:1006D000C0F814C00AE091F803C0BCF1480F05D17E
:1006E0005FF0010C1CFA03FCC0F810C05B1CCBE7E8
:1006F0000560B1F800C0BCF1FF0F3FDDD0F804C0C9
:1007000065465FF0000C6346082B36D25FF0010CA3
:1007100013F1080E1CFA0EFC6446B1F800C014EA8E
:100720000C0C6246A24226D15FEA830C64465FF05D
:100730000F0C1CFA04FC6646B54317FA04FC5CEA8D
:10074000050591F803C0BCF1280F07D15FF0010C3B
:1007500013F1080E1CFA0EFCC0F814C091F803C087
:10076000BCF1480F07D15FF0010C13F1080E1CFA21
:100770000EFCC0F810C05B1CC6E74560F0BD89B236
:100780000161704789B241617047000030B40023B5
:10079000002244682300DFF8C44123400C680D792F
:1007A00054EA05242343436084682300DFF8B04102
:1007B0002340CC688D682C434D7954EA450423438B
:1007C0008360C46A230033F470030C7C641E2243EC
:1007D000D2B253EA0253C36230BC7047C9B2002997
:1007E00004D0826852F00102826003E082685208FD
:1007F000520082607047C9B2002904D0826852F466
:100800008072826003E0826832F480728260704796
:10081000816851F0080181607047010000208A68FA
:10082000120702D50122100001E000221000C0B220
:100830007047816851F00401816070470100002019
:100840008A68520702D50122100001E00022100040
:10085000C0B27047F0B400250024C9B20A2916DBE3
:10086000C66835000726B1F10A075FF0030C0CFBE0
:1008700007F7BE403400A543DBB2B1F10A060327F7
:100880007E4313FA06F634002543C56011E006697D
:1008900035000726032707FB01F7BE403400A543B8
:1008A000DBB2032606FB01F613FA06F634002543F5
:1008B0000561D2B2072A14DA466B35001F26571E8F
:1008C0005FF0050C0CFB07F7BE403400A543C9B22E
:1008D000561E05277E4311FA06F63400254345636C
:1008E0002DE0D2B20D2A14DA066B35001F26D71F71
:1008F0005FF0050C0CFB07F7BE403400A543C9B2FE
:10090000D61F05277E4311FA06F6340025430563FA
:1009100015E0C66A35001F26B2F10D075FF0050C21
:100920000CFB07F7BE403400A543C9B2B2F10D0677
:1009300005277E4311FA06F634002543C562F0BC54
:100940007047C9B2002904D0826852F480128260D4
:1009500003E0826832F4801282607047FFFEF0FF8D
:10096000FDF7F1FF002203881A00DFF84C319842AE
:1009700012D0DFF85C3198420ED0B0F1804F0BD02E
:10098000DFF83831984207D0DFF83431984203D08D
:10099000DFF83031984204D14FF68F731A404B88FC
:1009A0001A43DFF82431984208D0DFF8203198420A
:1009B00004D04FF6FF431A40CB881A4302808B883D
:1009C00083850B880385DFF8F03098420FD0DFF87D
:1009D000003198420BD0DFF8FC30984207D0DFF8A6
:1009E000F830984203D0DFF8F430984201D10B7A06
:1009F000038601238382704770B400230024002201
:100A0000058C4EF6FF7635400584058C2C008588D4
:100A10002A00858B2B0048F6FF752B404FF6FF45CB
:100A20002B400D8853EA05234DF6FF752C400D89A8
:100A300054EA05344D8854EA0534DFF87C50A84266
:100A400003D0DFF89C50A84205D14BF6FF752A4031
:100A50008D8952EA851282808383CD88A0F8405028
:100A6000048470BC7047C9B2002904D0028852F0D7
:100A70000102028004E002884FF6FE731A400280F1
:100A8000704781827047C9B2002904D0028852F0B1
:100A90008002028004E002884FF67F731A400280D1
:100AA00070470022838B1A004FF2FF731A4052EAFC
:100AB0000122828370470000002C014000040040A6
:100AC00000080040000C00400010004000140040EE
:100AD0000034014000400140004401400048014012
:100AE0000034014080B54E48006850F001004C4988
:100AF00008604C4800684C4908404A49086048482A
:100B000000684A490840464908604548006830F492
:100B10008020434908604348006830F4FE004149A2
:100B200008605FF41F004249086000F005F85FF0BC
:100B300000604049086001BD80B500F001F801BDCA
:100B400082B000200190002000903548006850F4E9
:100B50008030334908603248006810F4003000905B
:100B60000198401C01900098002803D10198B0F52D
:100B7000A06FF0D12A480068800302D501200090C0
:100B800001E0002000900098012847D12A48006821
:100B900050F010002849086027480068800880004D
:100BA000254908602448006850F002002249086086
:100BB0001C4800681B4908601A4800681949086009
:100BC0001848006850F480601649086015480068AD
:100BD00030F47C10134908601248006850F4E810A3
:100BE000104908600E48006850F080700C49086099
:100BF0000B4800688001FBD50A4800688008800027
:100C0000084908600748006850F00200054908607C
:100C10000448006810F00C000828F9D102B07047B1
:100C200000100240041002400000FFF8FFFFF6FE33
:100C30000810024008ED00E00020024010B440B26D
:100C4000002808D50A01194B40B210F00F04E31830
:100C500003F8042C03E00A01154B40B2C25410BC47
:100C6000704710B50400601EB0F1807F01D30120F1
:100C70000EE0601E0F4908600F215FF0FF30FFF7A4
:100C8000DDFF00200C49086007200C4908600020A7
:100C900010BD80B5FFF726FF00F04CF80848FFF7BD
:100CA000E0FFFFF7B2FAFFF75BFBFCE718ED00E0AF
:100CB00000E400E014E000E018E000E010E000E0F4
:100CC0004019010080B501211D20FFF75AFC0121C8
:100CD0000720FFF765FC01210120FFF743FC0121FC
:100CE0004FF40070FFF74DFC01BD80B503200E49A5
:100CF000887010200C49C8704FF400500A490880D1
:100D000009490A48FFF7A0FC4FF4806006490880B3
:100D100005490748FFF798FC02200349088002496B
:100D20000348FFF791FC01BDE004002000100140E2
:100D3000000C014080B5FFF7C5FFFFF7D6FF01BDEE
:100D400019E050F8041BCB0744BFA9F1010359185F
:100D5000121F0023042A41F8043BF9D25FEA827C87
:100D60000B4604D54FF0000CA1F800C09B1CD10726
:100D700044BF0021197050F8042B002AE1D17047BC
:100D800030B5016842688468091801EB5203D20744
:100D900048BF4C440C30994200D130BD11F9012BB1
:100DA00011F8015B002A04F8015B02D5521CF9D14D
:100DB000F1E7521EF4D5EEE77047FEE7FEE7FEE7E7
:100DC000FEE7704702480068401C01490860704710
:100DD000E8040020704780B5FFF7DEF901BD80B55B
:100DE000FFF7E1FA01BD000010B507497944183159
:100DF000064C7C44163404E00A68081D51188847E4
:100E00000146A142F8D110BD0800000024000000F6
:100E100031FFFFFF8400000070040020000000008C
:100E200061FFFFFF3C0100009C000000000000206B
:100E300000F00BF8002801D0FFF7D6FF0020C046D5
:100E4000C046FFF726FF00F002F80120704700F0CF
:100E500001B800000746384600F002F8FBE7000042
:100E600080B5C046C046024A11001820ABBEFBE761
:100E7000260002000148804701480047E50A0008B3
:100E8000850E0008C046C046C046C046FFF7D0FFEA
:100E9000FFF792BFFFF791BFFFF790BFFFF78FBF3C
:100EA000FFF78EBFFFF7FEBFFFF78BBFFFF7FEBF59
:100EB000FFF788BFFFF7FEBFFFF7FEBFFFF7FEBFDC
:100EC000FFF7FEBFFFF7FEBFFFF7FEBFFFF7FEBF56
:100ED000FFF7FEBFFFF7FEBFFFF7FEBFFFF7FEBF46
:100EE000FFF77DBFFFF777BFFFF7FEBFFFF7FEBF3E
:100EF000FFF7FEBFFFF7FEBFFFF7FEBFFFF7FEBF26
:100F0000FFF7FEBFFFF7FEBFFFF7FEBFFFF7FEBF15
:100F1000FFF7FEBFFFF7FEBFFFF7FEBFFFF7FEBF05
:100F2000FFF7FEBFFFF7FEBFFFF7FEBFFFF7FEBFF5
:100F3000FFF7FEBFFFF7FEBFFFF7FEBFFFF7FEBFE5
:100F4000FFF7FEBFFFF7FEBFFFF744BFFFF7FEBF8F
:100F5000FFF7FEBFFFF7FEBFFFF7FEBFFFF7FEBFC5
:100F6000F8000010FD000008F9000080FC000001FE
:100F7000FD000304000020FC000020FA0003010033
:100F80000318FC00005AF900046000010004F80096
:100F90000E0100000C000001AAAABBBBCCCCDDDD19
:0E0FA000FC000001FB00000AFB000004FD0045
:0400000508000E855C
:00000001FF
