:020000040800F2
:100000004803002031120008C9100008CB10000876
:1000100000000000000000000000000000000000E0
:10002000000000000000000000000000C5090008FA
:1000300000000000000000008709000835090008E2
:100040007F080008000000000B0D00080F0D0008DD
:100050009F1100080F1200081B120008651200080B
:10006000000000002511000867120008691200084E
:10007000031100086B1200086D1200080000000058
:100080000111000800000000000000006F120008CD
:100090007112000873120008751200087712000828
:1000A000791200087B1200087D1200080511000873
:1000B0007F120008FEB586B007000E9D0F9C6846B3
:1000C000818B0420484300F047FB0600002E0DD032
:1000D0004C2000F041FB04900498002802D00498C2
:1000E000066305E0300000F06BFB01E000200490A7
:1000F0000498002812D000200390049802900194E4
:100100000095089B6846828B0699380000F00CF831
:10011000049800F055F80120059002E00020C0434B
:100120000590059809B0F0BDFDB582B00F000A9E9C
:100130000C9C206B0399042251434018001F00902F
:1001400000980721884300900098400701D072B6BC
:10015000FEE700200500052D08D2785D61193431D5
:1001600008707857002801D06D1CF4E70020382172
:100170006054072E01D306200600E662E6630020E5
:1001800020642000001D00F038FB2000183000F033
:1001900034FB24610720801BA0616462002060643E
:1001A000002048216054049A0299009800F068FBEE
:1001B00020600B98002801D00B98046005B0F0BDBA
:1001C00010B5040000F098FB75480068401C7449A5
:1001D000086074480068002808D1724804607048BC
:1001E000006801280ED100F0C3F90BE06E480068EA
:1001F000002807D1E06A6B490968C96A884201D3BF
:100200006848046069480068401C6849086068489C
:100210000068E16A884202D2E06A6549086021000C
:10022000091D6448E26A14235A43801800F0E8FA72
:1002300000F06EFB5C480068002807D05948006851
:10024000C06AE16A884201D200F04CFB10BD000098
:1002500038B504000025002C0ED096480068002810
:1002600001D072B6FEE700F031F80021200000F066
:1002700037FA00F031F80500002D01D100F032FB13
:1002800031BD00001CB58C48019000200090002377
:1002900020228A498A48FFF70DFF0400012C0DD166
:1002A00072B60020C0438749086001203E490860BB
:1002B00000209F49086000F0FCFA05E00020C043E0
:1002C000844201D172B6FEE713BD00007948006890
:1002D000401C78490860704770B5002400257548B7
:1002E0000068002801D172B6FEE700F005FB7148F6
:1002F0000068401E6F4908606E48006800284BD1B6
:1003000027480068002847D08A480068002826D07F
:100310008848C068C06804002000183000F09AFACD
:100320002000001D00F096FA21480068E16A88422A
:1003300002D2E06A1E4908602100091D1D48E26AD8
:1003400014235A43801800F05BFAE06A15490968E3
:10035000C96A8842D8D3012079490860D4E7002CC3
:1003600001D000F023F974480668002E0CD000F08C
:1003700023F8002802D0012071490860761E002E63
:10038000F5D100206C4908606D480068002803D052
:100390000120050000F0A6FA00F0BAFA280070BDAE
:1003A000A40C0020980C0020B00C0020C00C0020F1
:1003B000AC0C0020C80B0020F8B500253D480068B3
:1003C000002869D15A480668761C59480660002EF4
:1003D00017D15C4800680068002801D072B6FEE7BB
:1003E00058480068009058480068564908600098CE
:1003F0005549086055480068401C5449086000F0A1
:10040000D5F83048006886423AD34E480068006804
:10041000002804D10020C0432A49086030E0494840
:100420000068C068C068040060680700BE4202D26D
:100430002448076024E02000001D00F00BFAA06AA9
:10044000002803D02000183000F004FA404800686B
:10045000E16A884202D2E06A3D4908602100091D34
:100460003C48E26A14235A43801800F0C9F9E06A54
:1004700032490968C96A8842C7D301200500C4E728
:1004800034482E490968C96A142251434058022849
:1004900007D30120050004E027480068401C2649D6
:1004A000086027480068002801D0012005002800C6
:1004B000F2BD0000CC0C0020C80C00205C1200082B
:1004C00059050008C40C002000B518480068002831
:1004D00003D001201A49086027E00020184908606D
:1004E0001B48006801001B4814224A43805800281A
:1004F00005D1002901D172B6FEE7491EF3E7154880
:1005000014234B43C0180200506840685060536881
:1005100010000830834202D1506840685060506833
:10052000C068064A10600A48016000BDCC0C00207B
:10053000A80C00207C0C0020B40C0020980C00209B
:10054000B80C00209C0C0020A00C0020BC0C00204B
:10055000AC0C0020C80B002010B5040000F025F8FA
:100560001D4800680228F9D300F0BCF9F6E7000046
:1005700010B500200400072C07D21748142161434E
:10058000401800F02BF9641CF5E7144800F026F938
:10059000134800F023F90F4800F020F90F481149E3
:1005A00008600F481049086010BD704700B50D493C
:1005B00009680968002904D10021C9430B4A116068
:1005C00007E008490968C968C96808004168074A1E
:1005D000116000BD7C0C0020C80B0020540C0020D2
:1005E000680C00209C0C0020A00C0020C40C0020F3
:1005F000FDB582B00E000A9F01250298002801D1A6
:1006000072B6FEE70298040000F0EEF9019004983B
:10061000002802D0606C0499086068464821615C3B
:10062000017002204821605469460C2008560028B9
:1006300019D0022808D003D304280BD008D312E025
:10064000606C304360640EE0606C401C60640AE0E3
:10065000666408E068460078022801D0666401E01C
:1006600000200500FFE768460078012831D1A06A24
:10067000002801D072B6FEE72F480068002815D187
:100680002000001D00F0E6F82C480068E16A88426E
:1006900002D2E06A294908602100091D2448E26A63
:1006A00014235A43801800F0ABF804E021001831FD
:1006B000234800F0A5F81F480068C06AE16A884234
:1006C00007D2002F02D00120386002E001201D492E
:1006D0000860019800F08CF9280005B0F0BD00001A
:1006E000F8B504000E001848056812480068001D9F
:1006F00000F0B0F8281907000E4800684760AF42C4
:1007000007D20C480168091D1048006800F084F801
:100710000CE008480168091D0D48006800F07CF8ED
:100720000C480068874201D20A480760F1BD00000A
:10073000C80B0020980C0020CC0C0020AC0C002032
:100740007C0C0020B80C0020A80C0020A00C00207D
:100750009C0C0020C40C002038B50500002468075C
:10076000400F002804D0280008306907490F451AB7
:10077000FFF7ACFD15480068002804D11448072194
:10078000884312490860134800684019124988429A
:1007900011D2104800680F490968491988420AD2E5
:1007A0000A4800680B4909684018040009480068B5
:1007B000401908490860FFF78FFD200032BD000096
:1007C00000B5002801D072B6FEE700BD940C0020F1
:1007D00050030020900C0020780800000100083130
:1007E00041600021C943816001000831C1600100FE
:1007F00008310161002101607047002101617047EB
:1008000042684A6093688B609368596091600861A0
:1008100003685B1C0360704710B502000C68002081
:10082000C043844202D11069030008E01000083080
:10083000030058680068844201D35B68F9E7586890
:100840004860486881608B6059600A611068401C8C
:10085000106010BD00B5010008698A684B689A6095
:100860004A688B685A6042688A4201D18A6842604D
:1008700000220A610268521E0260006800BDFEE7A5
:10088000001F80235B040360001F0160001F354BC5
:1008900003601438026020387047000000B5324809
:1008A00000680021C943884201D072B6FEE772B6E3
:1008B000FEE780B52D480068FF21090401432B485D
:1008C00001602A480068FF210906014327480160AA
:1008D00000F040F800202449086000F074F800207F
:1008E00002BD00008020400521490860BFF34F8F02
:1008F000BFF36F8F7047000072B61B480068401C42
:1009000019490860BFF34F8FBFF36F8F7047000026
:1009100000B515480068002801D172B6FEE71248FC
:100920000068401E104908600F480068002800D188
:1009300062B600BD10B500F057F80400FFF73CFDAB
:10094000002803D08020400509490860200000F0FD
:100950004FF810BD0748084908600720074908609C
:10096000704700009D0800082C00002020ED00E0EA
:1009700004ED00E07FBB000014E000E010E000E0C8
:1009800080F308887047EFF309801B4B1A68203802
:100990001060F0C044464D4656465F46F0C008B56C
:1009A00072B6FFF791FD62B60CBC11680868103092
:1009B000F0C8A046A946B246BB4680F30988203855
:1009C000F0C8184770470C4B19680868203080F34E
:1009D0000988022080F31488BFF36F8F3FBCAE46B6
:1009E00008BC04BC62B61847EFF3108072B67047BB
:1009F00080F3108870470000980C0020FEB50400BA
:100A00000025002600200290002001900020009088
:100A100000276C4800680C2101400D0028000028C8
:100A200006D0042807D0082808D00C2829D02BE0AD
:100A30007F4820602AE07F48206027E06148006806
:100A4000F021890301400E005E480068C021490280
:100A500001400291B60CB61C0298002803D17648DA
:100A6000704307000BE0754800680007000F401C4A
:100A700001907048019900F0F1F870430700276079
:100A800004E06F48206001E0694820604D4800683C
:100A9000F02101400D002D096A48405D009020685A
:100AA0000099C840606047480068E021C9000140E3
:100AB0000D002D0A6348405D009060680099C840B1
:100AC000A0604A480068C00502D45F48E0600AE0C0
:100AD0003C480068400403D4A0684008E06002E09D
:100AE000A0688008E06041480068400602D457488A
:100AF000206102E08020000220613C480068C006BE
:100B000002D44B48606101E02068606137480068AA
:100B10008007800F002802D1A068A0611AE0334846
:100B200000688007800F012802D12068A06111E0D1
:100B30002E4800688007800F022803D18020000221
:100B4000A06107E0294800688007800F032801D1D1
:100B50003748A06125480068C0218902014000296A
:100B600002D1A068E06123E020480068C02189022A
:100B7000014080204002814202D12068E06117E0FC
:100B80001A480068C0218902014080208002814209
:100B900003D180200002E0610AE014480068C0210F
:100BA00089020140C0208002814201D12048E061D9
:100BB0000E480068000602D42148206200E0276247
:100BC000F7BD00000410024000B549B2002905D06D
:100BD0001F4A126802431E4B1A6004E01C4A126846
:100BE00082431B4B1A6000BD000000003010024021
:100BF00000B549B2002905D0164A12680243154BC8
:100C00001A6004E0134A12688243124B1A6000BD56
:100C100000B549B2002905D00F4A126802430E4BB5
:100C20001A6004E00C4A126882430B4B1A6000BD44
:100C300000127A000024F40000093D002C1002404C
:100C4000006CDC0230000020809FD5001280000084
:100C500014100240181002401C1002400022030A27
:100C60008B420BD203098B4219D243088B422ED2FE
:100C7000411A00D20146524110467047FF22090234
:100C80003FD012068B4205D3121209028B4201D3C8
:100C90001212090203098B4219D300E0090AC309A1
:100CA0008B4201D3CB01C01A524183098B4201D33D
:100CB0008B01C01A524143098B4201D34B01C01A28
:100CC000524103098B4201D30B01C01A5241C308A0
:100CD0008B4201D3CB00C01A524183088B4201D30F
:100CE0008B00C01A524143088B4201D34B00C01AFB
:100CF0005241884200D3401A5241CFD20146104699
:100D0000704708B500F002F808BDFEE77047FEE73F
:100D100080B54A48006801210143484801604848BD
:100D20000068484901404648016044480068464917
:100D300001404248016041480068444901403F4841
:100D400001603F480068424901403D480160414818
:100D500000680F2188433F4908603F4800683F49C9
:100D600001403D4801603E480068012188433C49FC
:100D7000086000203B49086000F001F801BDC0B5E3
:100D800000200190002000902C480068802149023A
:100D900001432A48016029480068802189020840EF
:100DA00000900198401C01900098002804D10198FF
:100DB000A021C9018842EED120480068800302D5F5
:100DC0000120009001E0002000900098012834D11B
:100DD0001120254908601A48006819490860184818
:100DE0000068174908601648006820490140144807
:100DF000016013480068A021C90201431048016046
:100E00000E4800688021490401430C4801600B48EA
:100E100000688001FBD50A4800680321884308491F
:100E20000860074800680221014305480160044842
:100E300000680C2101400829F9D103BD00100240CF
:100E4000041002400CB8FFF8FFFFF6FEFFFFFBFFA7
:100E5000FFFFC0FF2C10024030100240ACFEFFFF2D
:100E6000341002400810024000200240FF7FC0FF03
:100E7000F0B500220023002400252A00102A5CD2AD
:100E8000012595402B000D681D402C009C4252D13D
:100E900004254D57012D03D004254D57022D20D197
:100EA00086680327BC46150002277D436746AF408E
:100EB000BE438660866805254F57BC46150002274D
:100EC0007D436746AF40374387608588012696405B
:100ED000B5438580858806268E57B6B296402E4348
:100EE000868006680327BC46150002277D436746B7
:100EF000AF40BE430660066804254F57BC46150048
:100F000002277D436746AF4037430760C668032723
:100F1000BC46150002277D436746AF40BE43C6600E
:100F2000C66807254F57BC46150002277D43674614
:100F3000AF403743C760521CA0E7F0BD00B502893F
:100F400013005B1C0381036892B299540289838861
:100F50009A4201D100220281C28883889A4202D239
:100F6000C288521CC28000BD38B504006068C569E3
:100F7000A80622D56069002815D0208B0100491CE5
:100F800021836168898C626980B21154208B618BE6
:100F9000884212D300200090002301221021A06A71
:100FA000FFF726FB09E0A068002806D06068818C66
:100FB000C9B220000830FFF7C1FF280706D56068D6
:100FC00000F014F80821606800F014F828050CD52A
:100FD00080210901606800F00DF8002000900023D6
:100FE00001220821A06AFFF703FB31BD808CC005F8
:100FF000C00D70470162704700B583B000F05EF825
:101000000020019001200090114B2022114912482C
:10101000FFF750F8FFF736F900200EBD10B50400B9
:101020000E480088000508D50D4801888020000181
:1010300008430B49088080B206E00A480168802016
:1010400000010843074908609620FFF701F9E7E728
:1010500040000020541200081D1000081400004831
:10106000280000481800004800B583B001206946F8
:101070000871032069464871002069468871802004
:101080000001009069469020C005FFF7F1FE07BD02
:1010900000B589B06846FFF7B1FC0121C020C0024D
:1010A000FFF792FD012181204000FFF7B1FD0121F2
:1010B0009020C001FFF79CFD09B000BD80B5FFF78F
:1010C000E7FFFFF7D1FF01BD704700B510480028CA
:1010D00001D0401EFBE70F490988090508D50E48D5
:1010E00001888020000108430B49088080B2EDE7A9
:1010F0000A48016880200001084308490860E5E7C4
:101100007047704780B50648FFF72EFF01BD00000D
:10111000E09304001400004828000048180000482C
:1011200000000020704770B40121002313E0046820
:10113000001D0C4202D04D466D1E64192360241D13
:10114000121F042AFAD22500960701D52380AD1C70
:101150000A4000D02B700268001D002AE7D170BC45
:10116000704730B501684118446862088A1883687E
:10117000E40701D54C461B190C30914200D130BD1B
:101180000C7864B2491C0D78491C1D705B1C002C46
:1011900002D5641CF9D1F0E7641EF4D5EDE7FEE753
:1011A00010B5074979441831064C7C44163404E0E4
:1011B000081D0A68891888470100A142F8D110BDAE
:1011C00008000000240000005FFFFFFF8809000006
:1011D00048030020000000008BFFFFFFA400000078
:1011E0003C0000000000002000F00BF8002801D0B7
:1011F000FFF7D6FF0020C046C046FFF7FDFE00F017
:1012000002F80120704780B500F002F801BDFEE74A
:101210000746384600F002F8FBE7FEE780B5C04617
:10122000C046024A11001820ABBEFBE726000200B0
:101230000148804701480047110D0008411200088D
:10124000C046C046C046C046FFF7CEFF52533438B2
:1012500035000000626C696E6B00000049444C452B
:1012600000000000FEE7FEE7FEE7FEE7FEE7FEE720
:10127000FEE7FEE7FEE7FEE7FEE7FEE7FEE7FEE746
:10128000074C12000800380140DC00FCAAFC000DED
:0E1290000102030401020304060708096400BA
:04000005080012419C
:00000001FF
