:020000040800F2
:1000000010040020C10C00084D0B00084F0B000825
:1000100000000000000000000000000000000000E0
:10002000000000000000000000000000150B0008A8
:100030000000000000000000D70A0008310C000892
:100040009F03000800000000A3030008A7050008A4
:10005000CF0A00089F0C0008AB0C0008ED0C00084C
:10006000000000009B0B0008EF0C0008F10C0008DA
:10007000970B0008F30C0008F50C000800000000C6
:10008000950B00080000000000000000F70C0008BD
:10009000F90C0008FB0C0008FD0C0008FF0C000820
:1000A000010D0008030D0008050D0008990B00085C
:1000B000070D0008FEB50400002500260020029070
:1000C000002001900020009000276C4800680C215F
:1000D00001400D002800002806D0042807D0082879
:1000E00008D00C2829D02BE0774820602AE07748F8
:1000F000206027E061480068F021890301400E007C
:100100005E480068C021490201400291B60CB61C4D
:100110000298002803D16E48704307000BE06D4839
:1001200000680007000F401C01906848019900F02A
:10013000DFF870430700276004E06748206001E0B3
:10014000614820604D480068F02101400D002D09F4
:100150006248405D009020680099C8406060474850
:100160000068E021C90001400D002D0A5B48405D98
:10017000009060680099C840A0604A480068C005C7
:1001800002D45748E0600AE03C480068400403D4C9
:10019000A0684008E06002E0A0688008E060414894
:1001A0000068400602D44F48206102E0802000022F
:1001B00020613C480068C00602D44348606101E009
:1001C00020686061374800688007800F002802D1EE
:1001D000A068A0611AE0334800688007800F0128FA
:1001E00002D12068A06111E02E4800688007800FCE
:1001F000022803D180200002A06107E0294800689E
:100200008007800F032801D12F48A061254800688E
:10021000C02189020140002902D1A068E06123E0E9
:1002200020480068C02189020140802040028142AC
:1002300002D12068E06117E01A480068C0218902F5
:10024000014080208002814203D180200002E061D1
:100250000AE014480068C02189020140C0208002E1
:10026000814201D11848E0610E480068000602D4BE
:100270001948206200E02762F7BD00000410024028
:1002800000B549B2002905D0174A12680243164B3F
:100290001A6004E0144A12688243134B1A6000BDCE
:1002A000000000003010024000B549B2002905D01E
:1002B0000E4A126802430D4B1A6004E00B4A1268A2
:1002C00082430A4B1A6000BD00127A000024F40039
:1002D00000093D002C100240006CDC0200000020F0
:1002E000809FD500128000001410024018100240B8
:1002F0000022030A8B420BD203098B4219D2430816
:100300008B422ED2411A00D201465241104670470C
:10031000FF2209023FD012068B4205D312120902B6
:100320008B4201D31212090203098B4219D300E058
:10033000090AC3098B4201D3CB01C01A5241830978
:100340008B4201D38B01C01A524143098B4201D326
:100350004B01C01A524103098B4201D30B01C01A51
:100360005241C3088B4201D3CB00C01A52418308CB
:100370008B4201D38B00C01A524143088B4201D3F8
:100380004B00C01A5241884200D3401A5241CFD28A
:1003900001461046704708B500F002F808BDFEE7B8
:1003A0007047FEE7F8B500253D480068002869D190
:1003B00057480668761C56480660002E17D15848E4
:1003C00000680068002801D072B6FEE75448006853
:1003D00000905448006852490860009851490860EC
:1003E00051480068401C5049086000F0A3F82D48AF
:1003F000006886423AD34A4800680068002804D161
:100400000020C0432749086030E045480068C068C4
:10041000C068040060680700BE4202D2214807603D
:1004200024E02000001D00F0A9F8A06A002803D0F5
:100430002000183000F0A2F83C480068E16A8842C9
:1004400002D2E06A394908602100091D3848E26A91
:1004500014235A43801800F085F8E06A2E49096891
:10046000C96A8842C7D301200500C4E730482A4939
:100470000968C96A142251434058022807D3012051
:10048000050004E023480068401C22490860234816
:100490000068002801D0012005002800F2BD0000FE
:1004A000C0040020BC04002000B5184800680028E3
:1004B00003D001201949086027E00020174908608F
:1004C0001A48006801001A4814224A43805800283C
:1004D00005D1002901D172B6FEE7491EF3E71448A1
:1004E00014234B43C01802005068406850605368A2
:1004F00010000830834202D1506840685060506854
:10050000C068054A10600948016000BDC0040020B1
:10051000A8040020B00400209C040020B4040020A3
:10052000A0040020A4040020B8040020AC04002093
:100530001004002000B5094909680968002904D1A0
:100540000021C943064A116007E004490968C968E7
:10055000C96808004168024A116000BDA00400207B
:10056000BC04002042684A6093688B6093685960BD
:100570009160086103685B1C0360704700B501006F
:1005800008698A684B689A604A688B685A60426852
:100590008A4201D18A68426000220A610268521EC2
:1005A0000260006800BDFEE700B5002203881A0063
:1005B0001E4B984206D08023DB05984202D01C4B8C
:1005C000984205D11300284A1A4013004A881A435A
:1005D000184B984205D01300244A1A4013000A8988
:1005E0001A4302804B68C3620B8803850F4B984205
:1005F00008D0114B984205D01A4B984202D01C4BA0
:10060000984201D18B7A03860123838200BD00B515
:1006100049B2002904D0028801231343038003E078
:100620000288384B1340038000BD0000002C0140BD
:1006300000040040001000400040014000B549B2F5
:10064000002907D04422825A80231B0213434422EC
:10065000835205E04422825A5204520C4423C2526F
:1006600000BD0000004401408FFF0000FFFC0000BF
:100670000048014070B5002200230024058C254E5F
:100680002E400684058C2B0085882C00858B2A0043
:100690001500234A2A4015001B4A2A4015000A88E3
:1006A0002A431D001D4B2B401D008B891B022B4331
:1006B0001D004B881B022B43144DA8421BD11D006B
:1006C000184B2B401D00CB891B022B431D00124BE6
:1006D0002B401D008B881B022B432500124C2C4005
:1006E0002500124C2C4025000C8A24012C432500A7
:1006F0004C8A24012C43848082838D68C5630384E3
:1007000070BD0000FEFF0000FCFF0000002C014057
:10071000C1637047FFFE0000FFFB0000FFFD00000B
:100720008FFF0000FFF70000FFEF0000FFDF000079
:1007300080B54A48006801210143484801604848A3
:1007400000684849014046480160444800684649FD
:1007500001404248016041480068444901403F4827
:1007600001603F480068424901403D4801604148FE
:1007700000680F2188433F4908603F4800683F49AF
:1007800001403D4801603E480068012188433C49E2
:10079000086000203B49086000F001F801BDC0B5C9
:1007A00000200190002000902C4800688021490220
:1007B00001432A48016029480068802189020840D5
:1007C00000900198401C01900098002804D10198E5
:1007D000A021C9018842EED120480068800302D5DB
:1007E0000120009001E0002000900098012834D101
:1007F0001120254908601A480068194908601848FE
:1008000000681749086016480068204901401448EC
:10081000016013480068A021C9020143104801602B
:100820000E4800688021490401430C4801600B48D0
:1008300000688001FBD50A48006803218843084905
:100840000860074800680221014305480160044828
:1008500000680C2101400829F9D103BD00100240B5
:10086000041002400CB8FFF8FFFFF6FEFFFFFBFF8D
:10087000FFFFC0FF2C10024030100240ACFEFFFF13
:10088000341002400810024000200240FF7FC0FFE9
:10089000F0B500220023002400252A00102A5CD293
:1008A000012595402B000D681D402C009C4252D123
:1008B00004254D57012D03D004254D57022D20D17D
:1008C00086680327BC46150002277D436746AF4074
:1008D000BE438660866805254F57BC461500022733
:1008E0007D436746AF403743876085880126964041
:1008F000B5438580858806268E57B6B296402E432E
:10090000868006680327BC46150002277D4367469C
:10091000AF40BE430660066804254F57BC4615002D
:1009200002277D436746AF4037430760C668032709
:10093000BC46150002277D436746AF40BE43C660F4
:10094000C66807254F57BC46150002277D436746FA
:10095000AF403743C760521CA0E7F0BDF8B4002396
:100960000024D2B20D006D076D0F042675431600EA
:10097000AE40330089B2CD10042675434519009569
:1009800089B2CD100426754345192F6A0F25AC4650
:100990000D006E07760F04256E436546B540AF43E4
:1009A000009D2F6289B2CD100426754345192D6A2A
:1009B0001D432C0089B2CD100426754345192C62C5
:1009C000F1BC704710B58AB000F07BF8A024640039
:1009D0000220694608710320694648710020694673
:1009E000887100206946C8718020C0000090694667
:1009F0009020C005FFF74CFF02220A219020C0057D
:100A0000FFF7ACFF00211B48FFF701FE00206946FD
:100A10000881002002A94880A02040000390002007
:100A200002A90881002002A9887202A91148FFF7D3
:100A3000BBFD702069468882012005A948800020FE
:100A40000790022005A988818020400005A908821E
:100A500005A90848FFF70EFE01210648FFF7D7FD5C
:100A600001210448FFF7EAFD50210248FFF750FE3C
:100A7000FEE70000002C014000B583B0012069466C
:100A800008710320694648710020694688718020FA
:100A90000001009069469020C005FFF7F9FE07BDF0
:100AA00000B589B06846FFF705FB0121C020C002F0
:100AB000FFF7E6FB01219020C001FFF7F5FB09B02D
:100AC00000BD80B5FFF7ECFFFFF7D6FF01BDFEE7E5
:100AD00080F308887047EFF309801B4B1A682038B1
:100AE0001060F0C044464D4656465F46F0C008B51B
:100AF00072B6FFF7D9FC62B60CBC116808681030FA
:100B0000F0C8A046A946B246BB4680F30988203803
:100B1000F0C8184770470C4B19680868203080F3FC
:100B20000988022080F31488BFF36F8F3FBCAE4664
:100B300008BC04BC62B61847EFF3108072B6704769
:100B400080F31088704700009C040020704700B5B7
:100B50000C48002801D0401EFBE70B490988090515
:100B600008D50A4801888020000108430749088009
:100B700080B2EDE70648016880200001084304497F
:100B80000860E5E7E09304001400004828000048EE
:100B900018000048704770477047704770B40121D3
:100BA000002313E00468001D0C4202D04D466D1E68
:100BB00064192360241D121F042AFAD22500960707
:100BC00001D52380AD1C0A4000D02B700268001DA7
:100BD000002AE7D170BC704730B401210268001DC3
:100BE000002A0FD00368C318446808300C4202D0B2
:100BF0004D466D1E64191D6825601B1D241D121FA6
:100C0000ECD0F8E730BC704710B50749794418318B
:100C1000064C7C44163404E0081D0A68891888478D
:100C20000100A142F8D110BD2C0000004C000000D2
:100C300010B5FFF781FF0400FFF7B4FB002803D0D5
:100C400080204005024908602000FFF779FF10BDB1
:100C500004ED00E049FFFFFFB40000001004002095
:100C60000000000075FFFFFF10000000640000009E
:100C7000000000200000000000F00BF8002801D068
:100C8000FFF7C2FF0020C046C046FFF79BFE00F002
:100C900002F80120704780B500F002F801BDFEE7C0
:100CA0000746384600F002F8FBE7FEE780B5C0468D
:100CB000C046024A11001820ABBEFBE72600020026
:100CC000014880470148004731070008E10C00084F
:100CD00000000000010203040102030406070809E2
:100CE000C046C046C046C046FFF7C6FFFEE7FEE767
:100CF000FEE7FEE7FEE7FEE7FEE7FEE7FEE7FEE7CC
:080D0000FEE7FEE7FEE7FEE757
:0400000508000CE102
:00000001FF
