:020000040800F2
:1000000010040020890A00081509000817090008D3
:1000100000000000000000000000000000000000E0
:10002000000000000000000000000000250800089B
:100030000000000000000000E7070008F9090008C0
:100040009F03000800000000A3030008A7050008A4
:10005000DF070008670A0008730A0008B50A0008ED
:100060000000000063090008B70A0008B90A000888
:100070005F090008BB0A0008BD0A00080000000074
:100080005D0900080000000000000000BF0A000831
:10009000C10A0008C30A0008C50A0008C70A000808
:1000A000C90A0008CB0A0008CD0A00086109000847
:1000B000CF0A0008FEB504000025002600200290AB
:1000C000002001900020009000276C4800680C215F
:1000D00001400D002800002806D0042807D0082879
:1000E00008D00C2829D02BE0774820602AE07748F8
:1000F000206027E061480068F021890301400E007C
:100100005E480068C021490201400291B60CB61C4D
:100110000298002803D16E48704307000BE06D4839
:1001200000680007000F401C01906848019900F02A
:10013000DFF870430700276004E06748206001E0B3
:10014000614820604D480068F02101400D002D09F4
:100150006248405D009020680099C8406060474850
:100160000068E021C90001400D002D0A5B48405D98
:10017000009060680099C840A0604A480068C005C7
:1001800002D45748E0600AE03C480068400403D4C9
:10019000A0684008E06002E0A0688008E060414894
:1001A0000068400602D44F48206102E0802000022F
:1001B00020613C480068C00602D44348606101E009
:1001C00020686061374800688007800F002802D1EE
:1001D000A068A0611AE0334800688007800F0128FA
:1001E00002D12068A06111E02E4800688007800FCE
:1001F000022803D180200002A06107E0294800689E
:100200008007800F032801D12F48A061254800688E
:10021000C02189020140002902D1A068E06123E0E9
:1002200020480068C02189020140802040028142AC
:1002300002D12068E06117E01A480068C0218902F5
:10024000014080208002814203D180200002E061D1
:100250000AE014480068C02189020140C0208002E1
:10026000814201D11848E0610E480068000602D4BE
:100270001948206200E02762F7BD00000410024028
:1002800000B549B2002905D0174A12680243164B3F
:100290001A6004E0144A12688243134B1A6000BDCE
:1002A000000000003010024000B549B2002905D01E
:1002B0000E4A126802430D4B1A6004E00B4A1268A2
:1002C00082430A4B1A6000BD00127A000024F40039
:1002D00000093D002C100240006CDC0200000020F0
:1002E000809FD500128000001410024018100240B8
:1002F0000022030A8B420BD203098B4219D2430816
:100300008B422ED2411A00D201465241104670470C
:10031000FF2209023FD012068B4205D312120902B6
:100320008B4201D31212090203098B4219D300E058
:10033000090AC3098B4201D3CB01C01A5241830978
:100340008B4201D38B01C01A524143098B4201D326
:100350004B01C01A524103098B4201D30B01C01A51
:100360005241C3088B4201D3CB00C01A52418308CB
:100370008B4201D38B00C01A524143088B4201D3F8
:100380004B00C01A5241884200D3401A5241CFD28A
:1003900001461046704708B500F002F808BDFEE7B8
:1003A0007047FEE7F8B500253D480068002869D190
:1003B00057480668761C56480660002E17D15848E4
:1003C00000680068002801D072B6FEE75448006853
:1003D00000905448006852490860009851490860EC
:1003E00051480068401C5049086000F0A3F82D48AF
:1003F000006886423AD34A4800680068002804D161
:100400000020C0432749086030E045480068C068C4
:10041000C068040060680700BE4202D2214807603D
:1004200024E02000001D00F0A9F8A06A002803D0F5
:100430002000183000F0A2F83C480068E16A8842C9
:1004400002D2E06A394908602100091D3848E26A91
:1004500014235A43801800F085F8E06A2E49096891
:10046000C96A8842C7D301200500C4E730482A4939
:100470000968C96A142251434058022807D3012051
:10048000050004E023480068401C22490860234816
:100490000068002801D0012005002800F2BD0000FE
:1004A000C0040020BC04002000B5184800680028E3
:1004B00003D001201949086027E00020174908608F
:1004C0001A48006801001A4814224A43805800283C
:1004D00005D1002901D172B6FEE7491EF3E71448A1
:1004E00014234B43C01802005068406850605368A2
:1004F00010000830834202D1506840685060506854
:10050000C068054A10600948016000BDC0040020B1
:10051000A8040020B00400209C040020B4040020A3
:10052000A0040020A4040020B8040020AC04002093
:100530001004002000B5094909680968002904D1A0
:100540000021C943064A116007E004490968C968E7
:10055000C96808004168024A116000BDA00400207B
:10056000BC04002042684A6093688B6093685960BD
:100570009160086103685B1C0360704700B501006F
:1005800008698A684B689A604A688B685A60426852
:100590008A4201D18A68426000220A610268521EC2
:1005A0000260006800BDFEE780B54A48006801218E
:1005B00001434848016048480068484901404648AE
:1005C0000160444800684649014042480160414892
:1005D0000068444901403F4801603F480068424983
:1005E00001403D480160414800680F2188433F4970
:1005F00008603F4800683F4901403D4801603E486F
:100600000068012188433C49086000203B4908609C
:1006100000F001F801BDC0B500200190002000905D
:100620002C4800688021490201432A48016029487A
:10063000006880218902084000900198401C0190C8
:100640000098002804D10198A021C9018842EED168
:1006500020480068800302D50120009001E00020BE
:1006600000900098012834D11120254908601A48CB
:10067000006819490860184800681749086016485A
:100680000068204901401448016013480068A02117
:10069000C9020143104801600E48006880214904E6
:1006A00001430C4801600B4800688001FBD50A48F3
:1006B0000068032188430849086007480068022150
:1006C000014305480160044800680C2101400829E5
:1006D000F9D103BD00100240041002400CB8FFF82D
:1006E000FFFFF6FEFFFFFBFFFFFFC0FF2C100240E5
:1006F00030100240ACFEFFFF3410024008100240F0
:1007000000200240FF7FC0FFF0B50022002300243C
:1007100000252A00102A5CD2012595402B000D6887
:100720001D402C009C4252D104254D57012D03D071
:1007300004254D57022D20D186680327BC4615009D
:1007400002277D436746AF40BE4386608668052525
:100750004F57BC46150002277D436746AF403743DD
:100760008760858801269640B54385808588062662
:100770008E57B6B296402E43868006680327BC4645
:10078000150002277D436746AF40BE4306600668FA
:1007900004254F57BC46150002277D436746AF40EE
:1007A00037430760C6680327BC46150002277D4310
:1007B0006746AF40BE43C660C66807254F57BC4674
:1007C000150002277D436746AF403743C760521C80
:1007D000A0E7F0BD89B28161704701857047FEE7EF
:1007E00080F308887047EFF309801B4B1A682038A4
:1007F0001060F0C044464D4656465F46F0C008B50E
:1008000072B6FFF751FE62B60CBC11680868103072
:10081000F0C8A046A946B246BB4680F309882038F6
:10082000F0C8184770470C4B19680868203080F3EF
:100830000988022080F31488BFF36F8F3FBCAE4657
:1008400008BC04BC62B61847EFF3108072B670475C
:1008500080F31088704700009C0400201CB500F055
:1008600053F8A024640001206946087103206946FA
:10087000487100206946887100206946C87180204F
:10088000C000009069469020C005FFF73DFF802121
:10089000C9009020C005FFF79DFF0020C0B2FF28CF
:1008A00001D0401CFAE78021C9009020C005FFF765
:1008B00094FF0020C0B2FF28E9D0401CFAE700B541
:1008C00083B0012069460871032069464871002001
:1008D0006946887180200001009069469020C0051B
:1008E000FFF712FF07BD00B589B06846FFF7E2FBCE
:1008F0000121C020C002FFF7C3FC01219020C001EC
:10090000FFF7D2FC09B000BD80B5FFF7ECFFFFF7A1
:10091000D6FF01BD704700B50C48002801D0401E2D
:10092000FBE70B490988090508D50A48018880209A
:10093000000108430749088080B2EDE706480168D6
:1009400080200001084304490860E5E7E0930400C3
:1009500014000048280000481800004870477047FD
:100960007047704770B40121002313E00468001D34
:100970000C4202D04D466D1E64192360241D121FC7
:10098000042AFAD22500960701D52380AD1C0A401F
:1009900000D02B700268001D002AE7D170BC7047A0
:1009A00030B401210268001D002A0FD00368C3186B
:1009B000446808300C4202D04D466D1E64191D6813
:1009C00025601B1D241D121FECD0F8E730BC7047BA
:1009D00010B5074979441831064C7C44163404E0BC
:1009E000081D0A68891888470100A142F8D110BD86
:1009F0002C0000004C00000010B5FFF725FF04009C
:100A0000FFF7D0FC002803D0802040050249086091
:100A10002000FFF71DFF10BD04ED00E049FFFFFFC0
:100A2000B4000000100400200000000075FFFFFF6C
:100A30001000000064000000000000200000000022
:100A400000F00BF8002801D0FFF7C2FF0020C046DD
:100A5000C046FFF703FF00F002F80120704780B5A1
:100A600000F002F801BDFEE70746384600F002F844
:100A7000FBE7FEE780B5C046C046024A11001820D9
:100A8000ABBEFBE726000200014880470148004753
:100A9000A9050008A90A00080000000001020304DB
:100AA0000102030406070809C046C046C046C04606
:100AB000FFF7C6FFFEE7FEE7FEE7FEE7FEE7FEE71D
:100AC000FEE7FEE7FEE7FEE7FEE7FEE7FEE7FEE7FE
:0400000508000AA93C
:00000001FF
