:020000040800F2
:100000001804002075100008090F00080B0F0008E5
:1000100000000000000000000000000000000000E0
:10002000000000000000000000000000C1080008FF
:1000300000000000000000008308000831080008EC
:100040007B07000800000000070C00080B0C0008EC
:10005000371000084310000871100008A1100008B4
:1000600000000000570F0008A3100008A5100008AA
:10007000530F0008A7100008A91000080000000096
:10008000510F00080000000000000000AB10000845
:10009000AD100008AF100008B1100008B310000840
:1000A000B5100008B7100008B9100008550F000877
:1000B000BB100008FEB586B007000E9D0F9C684679
:1000C000818B0420484300F0C5FA0600002E0DD0B5
:1000D0004C2000F0BFFA04900498002802D0049845
:1000E000066305E0300000F0E9FA01E0002004902A
:1000F0000498002812D000200390049802900194E4
:100100000095089B6846828B0699380000F00CF831
:10011000049800F055F80120059002E00020C0434B
:100120000590059809B0F0BDFDB582B00F000A9E9C
:100130000C9C206B0399042251434018001F00902F
:1001400000980721884300900098400701D072B6BC
:10015000FEE700200500052D08D2785D61193431D5
:1001600008707857002801D06D1CF4E70020382172
:100170006054072E01D306200600E662E6630020E5
:1001800020642000001D00F0B6FA2000183000F0B6
:10019000B2FA24610720801BA061646200206064C1
:1001A000002048216054049A0299009800F0E6FA71
:1001B00020600B98002801D00B98046005B0F0BDBA
:1001C00010B5040000F016FB75480068401C744927
:1001D000086074480068002808D1724804607048BC
:1001E000006801280ED100F0C3F90BE06E480068EA
:1001F000002807D1E06A6B490968C96A884201D3BF
:100200006848046069480068401C6849086068489C
:100210000068E16A884202D2E06A6549086021000C
:10022000091D6448E26A14235A43801800F066FAF4
:1002300000F0ECFA5C480068002807D059480068D4
:10024000C06AE16A884201D200F0CAFA10BD00001B
:1002500038B504000025002C0ED096480068002810
:1002600001D072B6FEE700F031F80021200000F066
:10027000BFF900F031F80500002D01D100F0B0FA0F
:1002800031BD00001CB58C48019000200090002377
:1002900020228A498A48FFF70DFF0400012C0DD166
:1002A00072B60020C0438749086001203E490860BB
:1002B00000209F49086000F07AFA05E00020C04362
:1002C000844201D172B6FEE713BD00007948006890
:1002D000401C78490860704770B5002400257548B7
:1002E0000068002801D172B6FEE700F083FA714879
:1002F0000068401E6F4908606E48006800284BD1B6
:1003000027480068002847D08A480068002826D07F
:100310008848C068C06804002000183000F018FA4F
:100320002000001D00F014FA21480068E16A8842AC
:1003300002D2E06A1E4908602100091D1D48E26AD8
:1003400014235A43801800F0D9F9E06A1549096866
:10035000C96A8842D8D3012079490860D4E7002CC3
:1003600001D000F023F974480668002E0CD000F08C
:1003700023F8002802D0012071490860761E002E63
:10038000F5D100206C4908606D480068002803D052
:100390000120050000F024FA00F038FA280070BDB2
:1003A000740D0020680D0020800D0020900D0020AD
:1003B0007C0D0020980C0020F8B500253D48006811
:1003C000002869D15A480668761C59480660002EF4
:1003D00017D15C4800680068002801D072B6FEE7BB
:1003E00058480068009058480068564908600098CE
:1003F0005549086055480068401C5449086000F0A1
:10040000D5F83048006886423AD34E480068006804
:10041000002804D10020C0432A49086030E0494840
:100420000068C068C068040060680700BE4202D26D
:100430002448076024E02000001D00F089F9A06A2C
:10044000002803D02000183000F082F940480068EE
:10045000E16A884202D2E06A3D4908602100091D34
:100460003C48E26A14235A43801800F047F9E06AD6
:1004700032490968C96A8842C7D301200500C4E728
:1004800034482E490968C96A142251434058022849
:1004900007D30120050004E027480068401C2649D6
:1004A000086027480068002801D0012005002800C6
:1004B000F2BD00009C0D0020980D0020981000084F
:1004C00059050008940D002000B518480068002860
:1004D00003D001201A49086027E00020184908606D
:1004E0001B48006801001B4814224A43805800281A
:1004F00005D1002901D172B6FEE7491EF3E7154880
:1005000014234B43C0180200506840685060536881
:1005100010000830834202D1506840685060506833
:10052000C068064A10600A48016000BD9C0D0020AA
:10053000780D00204C0D0020840D0020680D002057
:10054000880D00206C0D0020700D00208C0D002007
:100550007C0D0020980C002010B5040000F025F858
:100560001D4800680228F9D300F03AF9F6E70000C8
:1005700010B500200400072C07D21748142161434E
:10058000401800F0A9F8641CF5E7144800F0A4F83E
:10059000134800F0A1F80F4800F09EF80F481149E9
:1005A00008600F481049086010BD704700B50D493C
:1005B00009680968002904D10021C9430B4A116068
:1005C00007E008490968C968C96808004168074A1E
:1005D000116000BD4C0D0020980C0020240D00205F
:1005E000380D00206C0D0020700D0020940D0020AF
:1005F000F8B504000E001348056811480068001D96
:1006000000F0A6F8281907000D4800684760AF42BF
:1006100007D20B480168091D0B48006800F07AF802
:100620000CE007480168091D0848006800F072F8EE
:1006300007480068874201D205480760F1BD000005
:10064000680D0020780D0020700D00206C0D00203A
:10065000940D002038B5050000246807400F0028DD
:1006600004D0280008306907490F451AFFF72EFE0D
:1006700015480068002804D114480721884312490E
:1006800008601348006840191249884211D2104886
:1006900000680F490968491988420AD20A48006867
:1006A0000B490968401804000948006840190849C6
:1006B0000860FFF711FE200032BD000000B50028E1
:1006C00001D072B6FEE700BD640D002020040020BA
:1006D000600D002078080000010008314160002111
:1006E000C943816001000831C16001000831016126
:1006F00000210160704700210161704742684A6033
:1007000093688B60936859609160086103685B1C13
:100710000360704710B502000C680020C04384429B
:1007200002D11069030008E0100008300300586887
:100730000068844201D35B68F9E7586848604868FC
:1007400081608B6059600A611068401C106010BDA8
:1007500000B5010008698A684B689A604A688B682E
:100760005A6042688A4201D18A68426000220A6166
:100770000268521E0260006800BDFEE7001F802371
:100780005B040360001F0160001F354B03601438D9
:10079000026020387047000000B532480068002130
:1007A000C943884201D072B6FEE772B6FEE780B553
:1007B0002D480068FF21090401432B4801602A48A5
:1007C0000068FF21090601432748016000F040F856
:1007D00000202449086000F074F8002002BD0000E9
:1007E0008020400521490860BFF34F8FBFF36F8F12
:1007F0007047000072B61B480068401C1949086029
:10080000BFF34F8FBFF36F8F7047000000B51548DF
:100810000068002801D172B6FEE712480068401E49
:10082000104908600F480068002800D162B600BD7A
:1008300010B500F057F80400FFF7BEFD002803D004
:100840008020400509490860200000F04FF810BDE5
:1008500007480849086007200749086070470000FA
:10086000990700080000002020ED00E004ED00E002
:100870007FBB000014E000E010E000E080F3088897
:100880007047EFF309801B4B1A6820381060F0C0E6
:1008900044464D4656465F46F0C008B572B6FFF76F
:1008A00013FE62B60CBC116808681030F0C8A04690
:1008B000A946B246BB4680F309882038F0C81847DD
:1008C00070470C4B19680868203080F309880220B3
:1008D00080F31488BFF36F8F3FBCAE4608BC04BCE6
:1008E00062B61847EFF3108072B6704780F3108835
:1008F00070470000680D0020FEB5040000250026AA
:1009000000200290002001900020009000276C48F9
:1009100000680C2101400D002800002806D00428A2
:1009200007D0082808D00C2829D02BE07F48206069
:100930002AE07F48206027E061480068F0218903B1
:1009400001400E005E480068C0214902014002914A
:10095000B60CB61C0298002803D1764870430700F5
:100960000BE0754800680007000F401C01907048BC
:10097000019900F0F1F870430700276004E06F4828
:10098000206001E0694820604D480068F021014086
:100990000D002D096A48405D009020680099C8400C
:1009A000606047480068E021C90001400D002D0A41
:1009B0006348405D009060680099C840A0604A4864
:1009C0000068C00502D45F48E0600AE03C48006867
:1009D000400403D4A0684008E06002E0A0688008FA
:1009E000E06041480068400602D45748206102E0B8
:1009F0008020000220613C480068C00602D44B48B9
:100A0000606101E020686061374800688007800FFE
:100A1000002802D1A068A0611AE03348006880076E
:100A2000800F012802D12068A06111E02E480068E3
:100A30008007800F022803D180200002A06107E018
:100A4000294800688007800F032801D13748A0613A
:100A500025480068C02189020140002902D1A06810
:100A6000E06123E020480068C02189020140802025
:100A70004002814202D12068E06117E01A48006814
:100A8000C0218902014080208002814203D1802060
:100A90000002E0610AE014480068C02189020140B8
:100AA000C0208002814201D12048E0610E480068E8
:100AB000000602D42148206200E02762F7BD000052
:100AC0000410024000B549B2002905D01F4A12683F
:100AD00002431E4B1A6004E01C4A126882431B4BFF
:100AE0001A6000BD000000003010024000B549B29D
:100AF000002905D0164A12680243154B1A6004E01B
:100B0000134A12688243124B1A6000BD00B549B205
:100B1000002905D00F4A126802430E4B1A6004E008
:100B20000C4A126882430B4B1A6000BD00127A0017
:100B30000024F40000093D002C100240006CDC028F
:100B400004000020809FD500128000001410024095
:100B5000181002401C1002400022030A8B420BD2E4
:100B600003098B4219D243088B422ED2411A00D27C
:100B70000146524110467047FF2209023FD012063B
:100B80008B4205D3121209028B4201D312120902C1
:100B900003098B4219D300E0090AC3098B4201D330
:100BA000CB01C01A524183098B4201D38B01C01A79
:100BB000524143098B4201D34B01C01A52410309F0
:100BC0008B4201D30B01C01A5241C3088B4201D39F
:100BD000CB00C01A524183088B4201D38B00C01A4C
:100BE000524143088B4201D34B00C01A5241884204
:100BF00000D3401A5241CFD201461046704708B583
:100C000000F002F808BDFEE77047FEE780B54A48ED
:100C1000006801210143484801604848006848498C
:100C20000140464801604448006846490140424846
:100C3000016041480068444901403F4801603F4825
:100C40000068424901403D480160414800680F2169
:100C500088433F4908603F4800683F4901403D489C
:100C600001603E480068012188433C49086000203B
:100C70003B49086000F001F801BDC0B500200190BB
:100C8000002000902C4800688021490201432A4836
:100C9000016029480068802189020840009001987D
:100CA000401C01900098002804D10198A021C9019E
:100CB0008842EED120480068800302D501200090D0
:100CC00001E0002000900098012834D1112025492E
:100CD00008601A48006819490860184800681749F0
:100CE0000860164800682049014014480160134814
:100CF0000068A021C9020143104801600E48006845
:100D00008021490401430C4801600B4800688001C0
:100D1000FBD50A4800680321884308490860074852
:100D200000680221014305480160044800680C2165
:100D300001400829F9D103BD00100240041002400F
:100D40000CB8FFF8FFFFF6FEFFFFFBFFFFFFC0FF41
:100D50002C10024030100240ACFEFFFF3410024065
:100D60000810024000200240FF7FC0FFF0B50022C3
:100D70000023002400252A00102A5CD2012595407A
:100D80002B000D681D402C009C4252D104254D576C
:100D9000012D03D004254D57022D20D1866803274D
:100DA000BC46150002277D436746AF40BE438660C0
:100DB000866805254F57BC46150002277D436746C8
:100DC000AF4037438760858801269640B5438580CC
:100DD000858806268E57B6B296402E4386800668D2
:100DE0000327BC46150002277D436746AF40BE433C
:100DF0000660066804254F57BC46150002277D4350
:100E00006746AF4037430760C6680327BC461500F6
:100E100002277D436746AF40BE43C660C6680725CC
:100E20004F57BC46150002277D436746AF40374306
:100E3000C760521CA0E7F0BD00B583B000F05EF8BB
:100E40000020019001200090114B202211491248EE
:100E5000FFF730F9FFF716FA00200EBD10B50400B9
:100E60000E480088000508D50D4801888020000143
:100E700008430B49088080B206E00A4801688020D8
:100E800000010843074908606420FFF7E1F9E7E73C
:100E900014000020901000085D0E000814000048A7
:100EA000280000481800004800B583B001206946BA
:100EB00008710320694648710020694688718020C6
:100EC0000001009069469020C005FFF74FFF07BD65
:100ED00000B589B06846FFF70FFD0121C020C002B0
:100EE000FFF7F0FD012181204000FFF70FFE0121F7
:100EF0009020C001FFF7FAFD09B000BD80B5FFF7F3
:100F0000E7FFFFF7D1FF01BD704700B50C4800288F
:100F100001D0401EFBE70B490988090508D50A489E
:100F200001888020000108430749088080B2EDE76E
:100F30000648016880200001084304490860E5E78D
:100F4000E0930400140000482800004818000048FE
:100F5000704770477047704770B40121002313E059
:100F60000468001D0C4202D04D466D1E64192360BA
:100F7000241D121F042AFAD22500960701D52380CA
:100F8000AD1C0A4000D02B700268001D002AE7D17A
:100F900070BC704730B401210268001D002A0FD0D8
:100FA0000368C318446808300C4202D04D466D1ED9
:100FB00064191D6825601B1D241D121FECD0F8E765
:100FC00030BC704710B5074979441831064C7C4451
:100FD000163404E0081D0A68891888470100A142F8
:100FE000F8D110BD08000000280000006DFFFFFFD1
:100FF00088090000180400200000000099FFFFFF8E
:101000001800000054000000000000200000000054
:1010100000F00BF8002801D0FFF7D4FF0020C046F5
:10102000C046FFF709FF00F002F80120704780B5C5
:1010300000F002F801BDFEE70746384600F002F86E
:10104000FBE7FEE780B5C046C046024A1100182003
:10105000ABBEFBE726000200AAAAAAAA0000000075
:1010600001020304010203040607080964000000EA
:10107000FEE7000001488047014800470D0C0008CA
:1010800085100008C046C046C046C046FFF7C0FFF6
:10109000626C696E6B00000049444C450000000022
:1010A000FEE7FEE7FEE7FEE7FEE7FEE7FEE7FEE718
:0C10B000FEE7FEE7FEE7FEE7FEE7FEE7D6
:04000005080010855A
:00000001FF
